:100000000C942A000C9447000C9447000C94470071
:100010000C9402100C9447000C9492090C94470025
:100020000C9447000C9447000C94D0080C94A3083F
:100030000C9447000C9447000C9447000C94470024
:100040000C9447000C9447000C9447000C94470014
:100050000C94470011241FBECFE5D8E0DEBFCDBF12
:1000600011E0A0E6B0E0ECE4FBE302C005900D92E5
:10007000AA3CB107D9F712E0AAECB1E001C01D9289
:10008000A539B107E1F70E9466190C94A41D0C94E0
:100090000000EF92FF920F931F937B018C0120E0F1
:1000A00030E040E05FE40E94F50388238CF0C80153
:1000B000B70120E030E040E05FE40E94C1010E940F
:1000C000B3049B01AC01205030404040504806C072
:1000D000C801B7010E94B3049B01AC01B901CA0178
:1000E0001F910F91FF90EF900895A0E0B0E0EBE733
:1000F000F0E00C945D1DDC012B01FA019C91923023
:1001000008F439C1EB018881823008F433C194309E
:1001100069F4843009F02FC111969C91119789815F
:10012000981709F428C1ACEBB0E025C1843009F47C
:1001300021C18230A9F4923009F01DC19A01AD01AC
:1001400088E0EA010990AE01E90109929E0181501F
:10015000C1F7E201898111969C918923818308C1AD
:10016000923009F407C112962D903C901397EB0141
:100170008A819B811496AD90BD90CD90DC901797AD
:10018000EC80FD800E811F819101281B390BB90184
:1001900037FF04C066277727621B730B6032710537
:1001A0000CF061C0121613066CF537014801062EDB
:1001B00004C096948794779467940A94D2F721E0C8
:1001C00030E040E050E004C0220F331F441F551FB1
:1001D0006A95D2F721503040404050402E213F21B7
:1001E00040235123211531054105510521F021E01E
:1001F00030E040E050E079018A01E628F72808293C
:1002000019293CC0232BD1F1260E371E350146019A
:10021000062E04C096948794779467940A94D2F734
:1002200021E030E040E050E004C0220F331F441FC3
:10023000551F6A95D2F721503040404050402A2146
:100240003B214C215D21211531054105510521F04E
:1002500021E030E040E050E059016A01A628B728CB
:10026000C828D9280BC0821593052CF01C01AA249C
:10027000BB24650103C0EE24FF24870111969C91E5
:10028000D20111968C91981709F445C0992339F041
:10029000A80197012A193B094C095D0906C0A6016E
:1002A00095012E193F09400B510B57FD08C01182D3
:1002B0003382228224833583468357831DC081E0A5
:1002C00081833382228288279927DC01821B930B4A
:1002D000A40BB50B84839583A683B7830DC0220F2F
:1002E000331F441F551F24833583468357838281E0
:1002F000938101979383828324813581468157813D
:10030000DA01C9010197A109B1098F5F9F4FAF4F72
:10031000BF4328F30BC0918333822282EA0CFB1C7B
:100320000C1D1D1DE482F5820683178383E0808304
:10033000248135814681578157FF1AC0C901AA27F8
:1003400097FDA095BA2F81709070A070B0705695EF
:10035000479537952795822B932BA42BB52B848318
:100360009583A683B7838281938101969383828349
:10037000DF0101C0D201CD01CDB7DEB7E2E10C94BF
:10038000791DA0E2B0E0E7ECF1E00C94691D69830F
:100390007A838B839C832D833E834F835887E9E048
:1003A000EE2EF12CEC0EFD1ECE010196B7010E943F
:1003B0002B068E010F5E1F4FCE010596B8010E94DD
:1003C0002B068A8991E089278A8BC701B801AE0183
:1003D000475E5F4F0E9475000E945605A096E6E0BA
:1003E0000C94851DA0E2B0E0E8EFF1E00C94691DEB
:1003F00069837A838B839C832D833E834F835887C5
:10040000F9E0EF2EF12CEC0EFD1ECE010196B701A6
:100410000E942B068E010F5E1F4FCE010596B8017C
:100420000E942B06C701B801AE01475E5F4F0E94D4
:1004300075000E945605A096E6E00C94851DA0E28A
:10044000B0E0E5E2F2E00C945D1D69837A838B8372
:100450009C832D833E834F835887CE010196BE0136
:10046000675F7F4F0E942B06CE010596BE016F5E2F
:100470007F4F0E942B069985923088F089898230BF
:10048000C8F0943019F4823051F404C0843029F457
:10049000923081F48CEB90E0C6C0923049F420E0B9
:1004A0009A858A89981321E02A87CE010996BBC0D4
:1004B000823049F420E09A858A89981321E02A8BBA
:1004C000CE014196B0C02D843E844F8458886D88FB
:1004D0007E888F88988CEE24FF248701AA24BB2471
:1004E000650140E050E060E070E0E0E0F0E0C10174
:1004F00081709070892BE9F0E60CF71C081D191D1E
:100500009A01AB012A0D3B1D4C1D5D1D80E090E062
:10051000A0E0B0E0E614F7040805190520F481E036
:1005200090E0A0E0B0E0BA01A901480F591F6A1F8E
:100530007B1FAA0CBB1CCC1CDD1C97FE08C081E0F5
:1005400090E0A0E0B0E0A82AB92ACA2ADB2A3196B6
:10055000E032F10549F0660C771C881C991C569412
:10056000479437942794C3CFFA85EA892B893C892D
:100570008B859C85280F391F2E5F3F4F17C0CA01FE
:1005800081709070892B61F016950795F794E79428
:1005900080E090E0A0E0B0E8E82AF92A0A2B1B2BC3
:1005A00076956795579547952F5F3F4F77FDE7CF36
:1005B0000CC0440F551F661F771F17FD4160EE0CDE
:1005C000FF1C001F111F21503040403090E05907A0
:1005D00090E0690790E4790760F32B8F3C8FDB0193
:1005E000CA018F779070A070B07080349105A1051A
:1005F000B10561F447FD0AC0E114F10401051105DC
:1006000029F0405C5F4F6F4F7F4F40781A8EFE1786
:1006100011F081E08A8F4D8F5E8F6F8F78A383E01A
:10062000898FCE0149960E945605A096E2E10C946E
:10063000791DA8E1B0E0EFE1F3E00C94651D69835A
:100640007A838B839C832D833E834F835887B9E0C5
:10065000EB2EF12CEC0EFD1ECE010196B7010E948F
:100660002B068E010F5E1F4FCE010596B8010E942A
:100670002B062985223008F47EC03989323010F4E7
:10068000B8017CC08A859A8989278A87243011F02D
:10069000223031F4231709F06EC06CEB70E06EC0AD
:1006A000343039F41D861E861F86188A1C861B86E8
:1006B00004C0323021F484E08987B7015FC02B8504
:1006C0003C858B899C89281B390B3C872B87ED84C3
:1006D000FE840F851889AD88BE88CF88D88CEA142F
:1006E000FB040C051D0540F4EE0CFF1C001F111F40
:1006F000215030403C872B8720E030E040E050E044
:1007000080E090E0A0E0B0E460E070E0EA14FB0478
:100710000C051D0540F0282B392B4A2B5B2BEA18C2
:10072000FB080C091D09B695A79597958795EE0CC2
:10073000FF1C001F111F6F5F7F4F6F31710531F775
:10074000DA01C9018F779070A070B0708034910584
:10075000A105B10561F427FD0AC0E114F10401050A
:10076000110529F0205C3F4F4F4F5F4F20782D87B8
:100770003E874F87588BBE01675F7F4FCB010E943A
:1007800056056896EAE00C94811DA8E1B0E0EBEC18
:10079000F3E00C94691D69837A838B839C832D839A
:1007A0003E834F83588789E0E82EF12CEC0EFD1E26
:1007B000CE010196B7010E942B068E010F5E1F4FDE
:1007C000CE010596B8010E942B068985823040F043
:1007D0008989823028F0C701B8010E94A30601C0B0
:1007E0008FEF6896E6E00C94851DA8E1B0E0EBEF92
:1007F000F3E00C94691D69837A838B839C832D833A
:100800003E834F83588789E0E82EF12CEC0EFD1EC5
:10081000CE010196B7010E942B068E010F5E1F4F7D
:10082000CE010596B8010E942B068985823040F0E2
:100830008989823028F0C701B8010E94A30601C04F
:100840008FEF6896E6E00C94851DA8E1B0E0EBE23E
:10085000F4E00C94691D69837A838B839C832D83D8
:100860003E834F83588789E0E82EF12CEC0EFD1E65
:10087000CE010196B7010E942B068E010F5E1F4F1D
:10088000CE010596B8010E942B068985823040F082
:100890008989823028F0C701B8010E94A30601C0EF
:1008A00081E06896E6E00C94851DA8E0B0E0EBE5F9
:1008B000F4E00C94661D9B01AC0183E08983DA01AE
:1008C000C9018827B7FD83959927AA27BB27B82E8A
:1008D000211531054105510519F482E089833AC09B
:1008E0008823A9F0203080E0380780E0480780E8BE
:1008F000580729F460E070E080E09FEC30C0EE24FF
:10090000FF248701E21AF30A040B150B02C07901D8
:100910008A018EE1C82ED12CDC82CB82ED82FE8250
:100920000F831887C801B7010E94070501971816A1
:10093000190684F4082E04C0EE0CFF1C001F111FC2
:100940000A94D2F7ED82FE820F831887C81AD90A5B
:10095000DC82CB82BA82CE0101960E94560528968F
:10096000E9E00C94821DACE0B0E0E9EBF4E00C941B
:100970006D1D69837A838B839C83CE010196BE01B2
:100980006B5F7F4F0E942B068D81823061F1823038
:1009900050F1843021F48E81882351F12EC02F81B3
:1009A000388537FD20C06E812F3131051CF066235C
:1009B000F9F023C08EE190E0821B930B29853A85E4
:1009C0004B855C8504C056954795379527958A9544
:1009D000D2F76623B1F050954095309521953F4F61
:1009E0004F4F5F4F0EC020E030E040E050E009C0C4
:1009F0002FEF3FEF4FEF5FE704C020E030E040E033
:100A000050E8B901CA012C96E2E00C94891DEF92DE
:100A1000FF920F931F937B018C0180E0E81680E02A
:100A2000F80681E0080780E0180788F48FEFE816E1
:100A3000F1040105110531F028F088E090E0A0E014
:100A4000B0E017C080E090E0A0E0B0E012C080E02D
:100A5000E81680E0F80680E0080781E0180728F033
:100A600088E190E0A0E0B0E004C080E190E0A0E088
:100A7000B0E020E230E040E050E0281B390B4A0BA8
:100A80005B0B04C016950795F794E7948A95D2F707
:100A9000F701EC53FF4F8081281B310941095109AF
:100AA000C9011F910F91FF90EF900895DF92EF928F
:100AB000FF920F931F93FC01E480F580068117815C
:100AC000D1808081823048F480E090E0A0E1B0E005
:100AD000E82AF92A0A2B1B2BA5C0843009F49FC0F1
:100AE000823021F4EE24FF24870105C0E114F104D3
:100AF0000105110519F4E0E0F0E096C06281738110
:100B00009FEF623879070CF05BC022E83FEF261BAD
:100B1000370B2A3131052CF020E030E040E050E086
:100B20002AC0B801A701022E04C076956795579593
:100B300047950A94D2F781E090E0A0E0B0E004C0CD
:100B4000880F991FAA1FBB1F2A95D2F70197A109E9
:100B5000B1098E219F21A023B1230097A105B105E2
:100B600021F081E090E0A0E0B0E09A01AB01282BF9
:100B7000392B4A2B5B2BDA01C9018F779070A0705B
:100B8000B07080349105A105B10539F427FF09C083
:100B9000205C3F4F4F4F5F4F04C0215C3F4F4F4F92
:100BA0005F4FE0E0F0E02030A0E03A07A0E04A0725
:100BB000A0E45A0710F0E1E0F0E079018A0127C0D3
:100BC0006038710564F5FB01E158FF4FD801C7019A
:100BD0008F779070A070B07080349105A105B10539
:100BE00039F4E7FE0DC080E490E0A0E0B0E004C07E
:100BF0008FE390E0A0E0B0E0E80EF91E0A1F1B1F93
:100C000017FF05C016950795F794E794319687E08E
:100C100016950795F794E7948A95D1F705C0EE24C9
:100C2000FF248701EFEFF0E06E2F67956627679549
:100C3000902F9F77D794DD24D7948E2F8695492FB8
:100C4000462B582F5D29B701CA011F910F91FF90C4
:100C5000EF90DF900895FC01DB01408151812281FA
:100C6000622F6F7770E0221F2227221F9381892F26
:100C7000880F822B282F30E0991F9927991F1196F2
:100C80009C93119721153105A9F541155105610571
:100C9000710511F482E037C082E89FEF13969C93B0
:100CA0008E9312979A01AB0167E0220F331F441F06
:100CB000551F6A95D1F783E08C930DC0220F331F27
:100CC000441F551F12968D919C911397019713966F
:100CD0009C938E931297203080E0380780E048077D
:100CE00080E4580758F314962D933D934D935C93ED
:100CF000179708952F3F310579F441155105610586
:100D0000710519F484E08C93089564FF03C081E0B9
:100D10008C9312C01C9210C02F57304013963C93F6
:100D20002E93129783E08C9387E0440F551F661F24
:100D3000771F8A95D1F7706414964D935D936D93E8
:100D40007C93179708951F93DC01FB019C919230CF
:100D500008F447C08081823008F443C0943051F4D5
:100D600011961C91843099F58181682F70E0611B88
:100D700071093FC0843021F0923031F48230B9F1F2
:100D80008181882389F12DC011961C9111978230A1
:100D9000F1F081811817D9F412962D913C91139797
:100DA000828193818217930794F028173907BCF04A
:100DB00014968D919D910D90BC91A02D248135812B
:100DC00046815781281739074A075B0718F4112312
:100DD00041F00AC082179307A407B50740F4112316
:100DE00019F061E070E005C06FEF7FEF02C060E0D6
:100DF00070E0CB011F910895DF93CF93CDB7DEB79D
:100E0000A3E5B0E0E3E5F0E0808180648C93A3E5A6
:100E1000B0E0E3E5F0E0808188608C93CF91DF91D2
:100E20000895DF93CF930F92CDB7DEB78983E2E5C4
:100E3000F0E0898180830F90CF91DF910895DF9357
:100E4000CF930F92CDB7DEB78983A3E5B0E0E3E59A
:100E5000F0E08081887F8C93A3E5B0E0E3E5F0E0EB
:100E600090818981892B8C930F90CF91DF91089588
:100E7000DF93CF930F92CDB7DEB78983898181301D
:100E800041F4A9E5B0E0E9E5F0E0808181608C9370
:100E900007C0A9E5B0E0E9E5F0E080818E7F8C93A2
:100EA0000F90CF91DF910895DF93CF9300D000D0C2
:100EB000CDB7DEB789836A838A81282F30E03C83EF
:100EC0002B838B819C8182309105C9F02B813C81E1
:100ED0002330310519F18B819C818130910569F5B1
:100EE000A3E5B0E0E3E5F0E0808180618C93A3E5C9
:100EF000B0E0E3E5F0E080818F7D8C932CC0A3E52A
:100F0000B0E0E3E5F0E0808180628C93A3E5B0E09F
:100F1000E3E5F0E080818F7E8C931DC0A3E5B0E017
:100F2000E3E5F0E0808180618C93A3E5B0E0E3E548
:100F3000F0E0808180628C930EC0A3E5B0E0E3E531
:100F4000F0E080818F7E8C93A3E5B0E0E3E5F0E0F4
:100F500080818F7D8C93ECE5F0E0898180830F9018
:100F60000F900F900F90CF91DF9108950F931F93E3
:100F7000DF93CF9300D0CDB7DEB789836A838A81B0
:100F8000813009F044C0A3E5B0E0E3E5F0E0808102
:100F900080618C93A3E5B0E0E3E5F0E080818062BE
:100FA0008C930CE510E08981882F90E0AA2797FDAB
:100FB000A095BA2FBC01CD010E945504DC01CB01E4
:100FC000BC01CD0120E030E048EC52E40E9419035E
:100FD000DC01CB01BC01CD0120E030E040E853EC66
:100FE0000E941F02DC01CB01BC01CD0120E030E0FA
:100FF00040E853E40E94F201DC01CB01BC01CD01C9
:101000000E944900DC01CB01F801808339C0A3E5CF
:10101000B0E0E3E5F0E0808180628C93A3E5B0E08E
:10102000E3E5F0E080818F7E8C930CE510E0898110
:10103000882F90E0AA2797FDA095BA2FBC01CD017B
:101040000E945504DC01CB01BC01CD0120E030E061
:1010500048EC52E40E941903DC01CB01BC01CD0134
:1010600020E030E040E853E40E941F02DC01CB01A5
:10107000BC01CD010E944900DC01CB01F801808355
:101080000F900F90CF91DF911F910F910895DF93F3
:10109000CF930F92CDB7DEB78983ECE5F0E089817D
:1010A00080830F90CF91DF910895DF93CF930F92BC
:1010B000CDB7DEB789838981813041F4A9E5B0E0FD
:1010C000E9E5F0E0808182608C9307C0A9E5B0E09B
:1010D000E9E5F0E080818D7F8C930F90CF91DF91D7
:1010E0000895DF93CF93CDB7DEB7A3E5B0E0E3E596
:1010F000F0E08081887F8C93CF91DF910895DF931A
:10110000CF9300D0CDB7DEB79A83898389819A8146
:101110009093DB018093DA010F900F90CF91DF91D4
:101120000895DF93CF9300D0CDB7DEB79A8389833C
:1011300089819A819093D9018093D8010F900F9063
:10114000CF91DF9108951F920F920FB60F92112445
:101150002F933F934F935F936F937F938F939F93BF
:10116000AF93BF93EF93FF93DF93CF93CDB7DEB7EA
:10117000E091DA01F091DB010995CF91DF91FF91C8
:10118000EF91BF91AF919F918F917F916F915F91FF
:101190004F913F912F910F900FBE0F901F90189578
:1011A0001F920F920FB60F9211242F933F934F93DC
:1011B0005F936F937F938F939F93AF93BF93EF93BF
:1011C000FF93DF93CF93CDB7DEB7E091D801F091D5
:1011D000D9010995CF91DF91FF91EF91BF91AF9127
:1011E0009F918F917F916F915F914F913F912F913F
:1011F0000F900FBE0F901F901895DF93CF93CDB730
:10120000DEB7AFE4B0E0EFE4F0E080818E7F8C9356
:10121000AFE4B0E0EFE4F0E080818D7F8C93AEE44A
:10122000B0E0EEE4F0E08081877F8C93AEE4B0E044
:10123000EEE4F0E080818F7E8C93AEE4B0E0EEE4EB
:10124000F0E08081887F8C93AEE4B0E0EEE4F0E0E3
:10125000808182608C93A9E5B0E0E9E5F0E08081CF
:1012600080628C93AEE4B0E0EEE4F0E080818064D4
:101270008C93CF91DF910895DF93CF9300D00F929D
:10128000CDB7DEB789838981282F30E03B832A835D
:101290008A819B81009731F02A813B812130310581
:1012A00049F00FC0AEE4B0E0EEE4F0E080818F7B67
:1012B0008C9307C0AEE4B0E0EEE4F0E0808180649F
:1012C0008C930F900F900F90CF91DF910895DF9343
:1012D000CF9300D0CDB7DEB79A83898389819A8175
:1012E0009093DD018093DC010F900F90CF91DF91FF
:1012F0000895DF93CF93CDB7DEB7E6E4F0E08081C9
:101300009181CF91DF910895DF93CF93CDB7DEB771
:10131000A9E5B0E0E9E5F0E080818F7D8C93CF9185
:10132000DF9108951F920F920FB60F9211242F9301
:101330003F934F935F936F937F938F939F93AF935D
:10134000BF93EF93FF93DF93CF93CDB7DEB7E091D9
:10135000DC01F091DD010995CF91DF91FF91EF91D3
:10136000BF91AF919F918F917F916F915F914F91BD
:101370003F912F910F900FBE0F901F901895DF9304
:10138000CF93CDB7DEB727970FB6F894DEBF0FBE69
:10139000CDBF89836A834B838A81883008F0EAC095
:1013A0008B81813009F06FC08981282F30E03F8325
:1013B0002E838E819F818130910549F12E813F815D
:1013C000223031052CF48E819F81009761F0D2C0CC
:1013D0002E813F812230310571F18E819F818330D2
:1013E0009105E9F1C7C0AAE3B0E0EAE3F0E080814B
:1013F000482F8A81282F30E081E090E0022E02C041
:10140000880F991F0A94E2F7842B8C93B3C0A7E34B
:10141000B0E0E7E3F0E08081482F8A81282F30E0B8
:1014200081E090E0022E02C0880F991F0A94E2F733
:10143000842B8C939FC0A4E3B0E0E4E3F0E08081D0
:10144000482F8A81282F30E081E090E0022E02C0F0
:10145000880F991F0A94E2F7842B8C938BC0A1E329
:10146000B0E0E1E3F0E08081482F8A81282F30E06E
:1014700081E090E0022E02C0880F991F0A94E2F7E3
:10148000842B8C9377C08B81882309F073C089816A
:10149000282F30E03D832C838C819D818130910504
:1014A00059F12C813D81223031052CF48C819D81B4
:1014B000009769F05FC02C813D812230310589F1B0
:1014C0008C819D818330910509F440C053C0AAE30B
:1014D000B0E0EAE3F0E08081482F8A81282F30E0F5
:1014E00081E090E0022E02C0880F991F0A94E2F773
:1014F000809584238C933EC0A7E3B0E0E7E3F0E05F
:101500008081482F8A81282F30E081E090E0022EF0
:1015100002C0880F991F0A94E2F7809584238C9368
:1015200029C0A4E3B0E0E4E3F0E08081482F8A81A1
:10153000282F30E081E090E0022E02C0880F991F32
:101540000A94E2F7809584238C9314C0A1E3B0E061
:10155000E1E3F0E08081482F8A81282F30E081E0AC
:1015600090E0022E02C0880F991F0A94E2F780953E
:1015700084238C9327960FB6F894DEBF0FBECDBFA1
:10158000CF91DF910895DF93CF93CDB7DEB7279743
:101590000FB6F894DEBF0FBECDBF89836A834B833D
:1015A0008A81883008F0EAC08B81813009F06FC0F1
:1015B0008981282F30E03F832E838E819F81813067
:1015C000910549F12E813F81223031052CF48E8125
:1015D0009F81009761F0D2C02E813F81223031057A
:1015E00071F18E819F8183309105E9F1C7C0ABE332
:1015F000B0E0EBE3F0E08081482F8A81282F30E0D3
:1016000081E090E0022E02C0880F991F0A94E2F751
:10161000842B8C93B3C0A8E3B0E0E8E3F0E08081D2
:10162000482F8A81282F30E081E090E0022E02C00E
:10163000880F991F0A94E2F7842B8C939FC0A5E32F
:10164000B0E0E5E3F0E08081482F8A81282F30E088
:1016500081E090E0022E02C0880F991F0A94E2F701
:10166000842B8C938BC0A2E3B0E0E2E3F0E08081B6
:10167000482F8A81282F30E081E090E0022E02C0BE
:10168000880F991F0A94E2F7842B8C9377C08B8183
:10169000882309F073C08981282F30E03D832C8393
:1016A0008C819D818130910559F12C813D812230C1
:1016B00031052CF48C819D81009769F05FC02C81ED
:1016C0003D812230310589F18C819D8183309105E6
:1016D00009F440C053C0ABE3B0E0EBE3F0E080813D
:1016E000482F8A81282F30E081E090E0022E02C04E
:1016F000880F991F0A94E2F7809584238C933EC04B
:10170000A8E3B0E0E8E3F0E08081482F8A81282F49
:1017100030E081E090E0022E02C0880F991F0A9409
:10172000E2F7809584238C9329C0A5E3B0E0E5E33C
:10173000F0E08081482F8A81282F30E081E090E01E
:10174000022E02C0880F991F0A94E2F78095842325
:101750008C9314C0A2E3B0E0E2E3F0E08081482F74
:101760008A81282F30E081E090E0022E02C0880FAD
:10177000991F0A94E2F7809584238C9327960FB6DD
:10178000F894DEBF0FBECDBFCF91DF910895DF93F8
:10179000CF9300D000D000D0CDB7DEB789836A8365
:1017A0008A81883008F06FC08981282F30E03D831E
:1017B0002C834C815D814130510549F18C819D81A3
:1017C0008230910534F42C813D812115310561F081
:1017D00057C04C815D814230510561F18C819D8102
:1017E00083309105D1F14CC0E9E3F0E08081282FEE
:1017F00030E08A81882F90E0A90102C05595479575
:101800008A95E2F7CA01582F51705B833DC0E6E329
:10181000F0E08081282F30E08A81882F90E0A901B4
:1018200002C0559547958A95E2F7CA01582F517025
:101830005B832AC0E3E3F0E08081282F30E08A81D7
:10184000882F90E0A90102C0559547958A95E2F747
:10185000CA01582F51705B8317C0E0E3F0E080812C
:10186000282F30E08A81882F90E0A90102C0559589
:1018700047958A95E2F7CA01582F51705B8304C0DF
:101880008FEF8B8301C002C09B819E838E81269641
:101890000FB6F894DEBF0FBECDBFCF91DF91089594
:1018A000DF93CF9300D000D0CDB7DEB789836A83B2
:1018B0008981282F30E03C832B838B819C81813070
:1018C0009105D1F02B813C81223031052CF48B81A4
:1018D0009C81009761F01EC02B813C812230310534
:1018E00081F08B819C818330910581F013C0EAE304
:1018F000F0E08A8180830EC0E7E3F0E08A81808394
:1019000009C0E4E3F0E08A81808304C0E1E3F0E011
:101910008A8180830F900F900F900F90CF91DF916D
:101920000895DF93CF9300D000D0CDB7DEB7898381
:101930006A838981282F30E03C832B838B819C81B3
:1019400081309105D1F02B813C81223031052CF47E
:101950008B819C81009761F01EC02B813C812230DD
:10196000310581F08B819C818330910581F013C01A
:10197000EBE3F0E08A8180830EC0E8E3F0E08A8147
:10198000808309C0E5E3F0E08A81808304C0E2E35C
:10199000F0E08A8180830F900F900F900F90CF918D
:1019A000DF910895DF93CF9300D0CDB7DEB7898361
:1019B0006A830F900F90CF91DF910895DF93CF93BB
:1019C00000D0CDB7DEB789836A8378940E949F0FD9
:1019D0008A810E94D40F82E99EE00E94F00F8981E3
:1019E0000E94BB0F0F900F90CF91DF910895DF936E
:1019F000CF9300D000D000D0CDB7DEB79A838983D3
:101A00006B834C833E832D838091CA01882F90E0A5
:101A1000880F991F880F991F9C01220F331F220FD7
:101A2000331F220F331F820F931F82529E4F298133
:101A30003A81B9010E949D1D8091CA01882F90E0D2
:101A40004091CA01880F991F880F991F9C01220F8E
:101A5000331F220F331F220F331F820F931FFC01EE
:101A6000E450FE4F40838091CA01882F90E0880F98
:101A7000991F880F991F9C01220F331F220F331FBC
:101A8000220F331F820F931FFC01E350FE4F8B8107
:101A900080838091CA01882F90E0880F991F880F5A
:101AA000991F9C01220F331F220F331F220F331F58
:101AB000820F931FFC01E250FE4F8C818083809146
:101AC000CA01882F90E0880F991F880F991F9C01E9
:101AD000220F331F220F331F220F331F820F931F3A
:101AE000FC01E150FE4F8C8180838091CA01882FD8
:101AF00090E0880F991F880F991F9C01220F331FB8
:101B0000220F331F220F331F820F931FFC01E0505F
:101B1000FE4F8D819E81918380838091CA018F5F6A
:101B20008093CA0180E026960FB6F894DEBF0FBE00
:101B3000CDBFCF91DF910895DF93CF93CDB7DEB7BF
:101B4000E6970FB6F894DEBF0FBECDBF8FA38FA16F
:101B5000882F90E09A838983D6C089819A81880FE3
:101B6000991F880F991F9C01220F331F220F331FCB
:101B7000220F331F820F931FFC01E350FE4F408161
:101B80008FA1882F90E0880F991F880F991F9C01C3
:101B9000220F331F220F331F220F331F820F931F79
:101BA000FC01E350FE4F8081481708F0A7C08FA1C9
:101BB000882F90E0880F991F880F991F9C01220F92
:101BC000331F220F331F220F331F820F931F8252A6
:101BD0009E4F9E012D5F3F4F39A728A79BA78AA73D
:101BE00034E23CA7EAA5FBA500802AA53BA52F5F10
:101BF0003F4F3BA72AA7E8A5F9A5008228A539A54C
:101C00002F5F3F4F39A728A73CA531503CA78CA593
:101C1000882341F78FA1882F90E049815A81880F4E
:101C2000991F880F991F9C01220F331F220F331F0A
:101C3000220F331F820F931FBC0162527E4FCA01D5
:101C4000880F991F880F991F9C01220F331F220FA5
:101C5000331F220F331F820F931F82529E4F7EA786
:101C60006DA798AB8FA794E299ABEFA5F8A9008078
:101C70002FA538A92F5F3F4F38AB2FA7EDA5FEA5A5
:101C800000822DA53EA52F5F3F4F3EA72DA739A966
:101C9000315039AB89A9882341F789819A81880F0E
:101CA000991F880F991F9C01220F331F220F331F8A
:101CB000220F331F820F931F82529E4F9BAB8AAB22
:101CC000FE013396FDABECABF4E2FEABECA9FDA953
:101CD00000802CA93DA92F5F3F4F3DAB2CABEAA95B
:101CE000FBA900822AA93BA92F5F3F4F3BAB2AAB40
:101CF0003EA931503EAB8EA9882341F789819A8154
:101D000001969A83898389819A81853091050CF4A3
:101D100024CFE6960FB6F894DEBF0FBECDBFCF91AD
:101D2000DF910895DF93CF9300D0CDB7DEB71A824D
:101D300019829BC089819A81880F991F880F991FEA
:101D40009C01220F331F220F331F220F331F820FDC
:101D5000931FFC01E150FE4F8081882309F055C09C
:101D600049815A8189819A81880F991F880F991F0B
:101D70009C01220F331F220F331F220F331F820FAC
:101D8000931FFC01E250FE4F6081CA01880F991F2A
:101D9000880F991F9C01220F331F220F331F220F20
:101DA000331F820F931FFC01E150FE4F6083898136
:101DB0009A81880F991F880F991F9C01220F331F4A
:101DC000220F331F220F331F820F931F9C012252B9
:101DD0003E4F84EC91E0B9010E949D1D89819A815A
:101DE000880F991F880F991F9C01220F331F220F04
:101DF000331F220F331F820F931FFC01E050FE4F51
:101E00000190F081E02D099528C049815A81CA01CD
:101E1000880F991F880F991F9C01220F331F220FD3
:101E2000331F220F331F820F931FFC01E150FE4F1F
:101E30008081682F6150CA01880F991F880F991FF0
:101E40009C01220F331F220F331F220F331F820FDB
:101E5000931FFC01E150FE4F608389810E949C0D1D
:101E600089819A8101969A8389838091CA01282F5A
:101E700030E089819A81821793070CF45BCF0F9031
:101E80000F90CF91DF910895DF93CF9300D000D0D2
:101E90000F92CDB7DEB79C838B836D831A82198234
:101EA0003CC089819A81880F991F880F991F9C01D6
:101EB000220F331F220F331F220F331F820F931F56
:101EC00082529E4F2B813C81B9010E94941D009744
:101ED000F9F489819A81880F991F880F991F9C01B5
:101EE000220F331F220F331F220F331F820F931F26
:101EF000FC01E350FE4F8081882F90E0AC018D8182
:101F0000882F90E09C01CA01B9010E949D1D0FC05D
:101F100089819A8101969A8389838091CA01282FA9
:101F200030E089819A81821793070CF4BACF0F9021
:101F30000F900F900F900F90CF91DF910895DF9346
:101F4000CF93CDB7DEB7A5E4B0E0E5E4F0E0808163
:101F50008F7B8C93A5E4B0E0E5E4F0E080818860BD
:101F60008C93A9E5B0E0E9E5F0E0808180688C938E
:101F7000CF91DF910895DF93CF930F92CDB7DEB766
:101F80008983A5E4B0E0E5E4F0E08081887F8C936C
:101F9000A5E4B0E0E5E4F0E090818981892B8C93A1
:101FA0000F90CF91DF910895DF93CF930F92CDB72C
:101FB000DEB78983E3E4F0E0898180830F90CF91DD
:101FC000DF910895DF93CF93CDB7DEB7A5E4B0E0FE
:101FD000E5E4F0E08081887F8C93CF91DF910895D4
:101FE000DF93CF9300D0CDB7DEB79A838983898101
:101FF0009A8190939302809392020F900F90CF91C9
:10200000DF9108951F920F920FB60F9211242F9314
:102010003F934F935F936F937F938F939F93AF9370
:10202000BF93EF93FF93DF93CF93CDB7DEB7E091EC
:102030009202F09193020995CF91DF91FF91EF9178
:10204000BF91AF919F918F917F916F915F914F91D0
:102050003F912F910F900FBE0F901F901895DF9317
:10206000CF93CDB7DEB783E065E041E00E94BF09C2
:1020700083E066E040E00E94BF090E94FD0881E223
:1020800091E10E946709CF91DF910895DF93CF938B
:10209000CDB7DEB768970FB6F894DEBF0FBECDBFE1
:1020A00083E065E041E00E94C30A80E090E0A0E2A6
:1020B000B1E48D8B9E8BAF8BB88F6D897E898F89B4
:1020C000988D2BEA3AEA4AE250E40E941F02DC01B2
:1020D000CB01898B9A8BAB8BBC8B69897A898B8975
:1020E0009C8920E030E040E85FE30E9425048823DB
:1020F0001CF481E0888B91C069897A898B899C89DD
:1021000020E030E04FE753E40E94C50318160CF0BE
:102110007BC06D897E898F89988D20E030E04AE709
:1021200054E40E941903DC01CB018C879D87AE87A4
:10213000BF876C857D858E859F8520E030E04AEFE6
:1021400054E40E941F02DC01CB0188879987AA878B
:10215000BB87688579858A859B8520E030E040E8EB
:102160005FE30E94250488232CF481E090E09F83A4
:102170008E833FC0688579858A859B8520E03FEF07
:102180004FE757E40E94C50318164CF56C857D8512
:102190008E859F8520E030E040E251E40E941F02DE
:1021A000DC01CB01BC01CD010E944900DC01CB0167
:1021B0009F838E830FC088EC90E09D838C838C81FD
:1021C0009D810197F1F79D838C838E819F8101977B
:1021D0009F838E838E819F81009769F724C06885D5
:1021E00079858A859B850E944900DC01CB019F830C
:1021F0008E838E819F819B838A838A819B810197B5
:10220000F1F79B838A830FC069897A898B899C89BE
:102210000E944900DC01CB01888B888989838981F0
:102220008A95F1F7898383E065E040E00E94C30A64
:1022300068960FB6F894DEBF0FBECDBFCF91DF9189
:102240000895DF93CF93CDB7DEB760970FB6F894BC
:10225000DEBF0FBECDBF8091CD01882379F40E94EF
:1022600079099093CF018093CE0180E00E943C09D0
:102270008091CD018F5F8093CD018CC08091CD0185
:10228000813009F087C00E947909988B8F8720914F
:10229000CE013091CF018F859889821B930B90934B
:1022A000CC018093CB0181E00E943C091092CD01CA
:1022B00080E090E0A0E2B1E48B879C87AD87BE8789
:1022C0006B857C858D859E8520E030E04AEF54E467
:1022D0000E941F02DC01CB018F839887A987BA87F0
:1022E0006F81788589859A8520E030E040E85FE35A
:1022F0000E94250488232CF481E090E09E838D8346
:102300003FC06F81788589859A8520E03FEF4FE750
:1023100057E40E94C50318164CF56B857C858D85A6
:102320009E8520E030E040E251E40E941F02DC0183
:10233000CB01BC01CD010E944900DC01CB019E8391
:102340008D830FC088EC90E09C838B838B819C8174
:102350000197F1F79C838B838D819E8101979E83EA
:102360008D838D819E81009769F714C06F81788578
:1023700089859A850E944900DC01CB019E838D836B
:102380008D819E819A83898389819A810197F1F752
:102390009A83898360960FB6F894DEBF0FBECDBFD7
:1023A000CF91DF910895DF93CF9300D000D0CDB7C8
:1023B000DEB719821A821B821C828091CB01909118
:1023C000CC012CE8813A920748F08FE490E0A0E03D
:1023D000B0E089839A83AB83BC8311C08091CB0129
:1023E0009091CC012AE330E0B9010E94141DCB0189
:1023F000CC01A0E0B0E089839A83AB83BC83898160
:102400009A81AB81BC81BC01CD010F900F900F90E0
:102410000F90CF91DF9108950F931F93DF93CF9388
:10242000CDB7DEB7CC54D0400FB6F894DEBF0FBEA8
:10243000CDBF80E06FEF0E94500C81E060E041E092
:102440000E94BF0981E061E041E00E94BF0981E094
:1024500062E041E00E94BF09FE01E75BFF4F80E0C0
:1024600090E0ACE0B2E480839183A283B3838E01D9
:102470000B5B1F4FFE01E75BFF4F60817181828123
:10248000938120E030E04AEF54E40E941F02DC0117
:10249000CB01F80180839183A283B383FE01EB5BC0
:1024A000FF4F608171818281938120E030E040E8BC
:1024B0005FE30E942504882344F4FE01ED5BFF4F97
:1024C00081E090E09183808364C0FE01EB5BFF4F6D
:1024D000608171818281938120E03FEF4FE757E473
:1024E0000E94C50318160CF043C0FE01E75BFF4FC6
:1024F000608171818281938120E030E040E251E48B
:102500000E941F02DC01CB018E010D5B1F4FBC013D
:10251000CD010E944900DC01CB01F8019183808349
:102520001FC0FE01EF5BFF4F88EC90E0918380833A
:10253000FE01EF5BFF4F808191810197F1F7FE0172
:10254000EF5BFF4F91838083DE01AD5BBF4FFE01E8
:10255000ED5BFF4F80819181019711969C938E9343
:10256000FE01ED5BFF4F808191810097D1F624C081
:102570008E010D5B1F4FFE01EB5BFF4F6081718190
:10258000828193810E944900DC01CB01F801918393
:102590008083FE01ED5BFF4F80819181FE01FF96FC
:1025A00091838083FE01FF96808191810197F1F7ED
:1025B000FE01FF969183808388E30E94DF1480E010
:1025C00090E0A8E4B2E48BAF9CAFADAFBEAF6BAD13
:1025D0007CAD8DAD9EAD2BEA3AEA4AE250E40E9412
:1025E0001F02DC01CB018FAB98AFA9AFBAAF6FA9C7
:1025F00078AD89AD9AAD20E030E040E85FE30E941D
:10260000250488231CF481E08EAB91C06FA978ADBE
:1026100089AD9AAD20E030E04FE753E40E94C50356
:1026200018160CF07BC06BAD7CAD8DAD9EAD20E07F
:1026300030E04AE754E40E941903DC01CB018AAB85
:102640009BABACABBDAB6AA97BA98CA99DA920E0D3
:1026500030E04AEF54E40E941F02DC01CB018EA758
:102660009FA7A8ABB9AB6EA57FA588A999A920E0C3
:1026700030E040E85FE30E94250488232CF481E0E9
:1026800090E09DA78CA73FC06EA57FA588A999A9BA
:1026900020E03FEF4FE757E40E94C50318164CF5C2
:1026A0006AA97BA98CA99DA920E030E040E251E411
:1026B0000E941F02DC01CB01BC01CD010E94490038
:1026C000DC01CB019DA78CA70FC088EC90E09BA7F5
:1026D0008AA78AA59BA50197F1F79BA78AA78CA536
:1026E0009DA501979DA78CA78CA59DA5009769F72F
:1026F00024C06EA57FA588A999A90E944900DC0184
:10270000CB019DA78CA78CA59DA599A788A788A577
:1027100099A50197F1F799A788A70FC06FA978AD80
:1027200089AD9AAD0E944900DC01CB018EAB8EA928
:102730008FA38FA18A95F1F78FA38FE00E94DF14FA
:1027400080E090E0A8E4B2E48BA39CA3ADA3BEA379
:102750006BA17CA18DA19EA12BEA3AEA4AE250E44A
:102760000E941F02DC01CB018F8F98A3A9A3BAA3FB
:102770006F8D78A189A19AA120E030E040E85FE365
:102780000E94250488231CF481E08E8F91C06F8DF8
:1027900078A189A19AA120E030E04FE753E40E949C
:1027A000C50318160CF07BC06BA17CA18DA19EA166
:1027B00020E030E04AE754E40E941903DC01CB0139
:1027C0008A8F9B8FAC8FBD8F6A8D7B8D8C8D9D8DFD
:1027D00020E030E04AEF54E40E941F02DC01CB010C
:1027E0008E8B9F8BA88FB98F6E897F89888D998DED
:1027F00020E030E040E85FE30E94250488232CF4C9
:1028000081E090E09D8B8C8B3FC06E897F89888DA5
:10281000998D20E03FEF4FE757E40E94C50318165B
:102820004CF56A8D7B8D8C8D9D8D20E030E040E2F3
:1028300051E40E941F02DC01CB01BC01CD010E94CA
:102840004900DC01CB019D8B8C8B0FC088EC90E0A4
:102850009B8B8A8B8A899B890197F1F79B8B8A8B4B
:102860008C899D8901979D8B8C8B8C899D89009784
:1028700069F724C06E897F89888D998D0E944900EF
:10288000DC01CB019D8B8C8B8C899D89998B888BEE
:10289000888999890197F1F7998B888B0FC06F8D83
:1028A00078A189A19AA10E944900DC01CB018E8FF9
:1028B0008E8D8F878F858A95F1F78F8781E00E94B3
:1028C000DF1480E090E0A0E0B0E48B879C87AD87C8
:1028D000BE876B857C858D859E8520E030E04AEF44
:1028E00054E40E941F02DC01CB018F839887A987E3
:1028F000BA876F81788589859A8520E030E040E845
:102900005FE30E94250488232CF481E090E09E83FD
:102910008D833FC06F81788589859A8520E03FEF60
:102920004FE757E40E94C50318164CF56B857C856C
:102930008D859E8520E030E040E251E40E941F0238
:10294000DC01CB01BC01CD010E944900DC01CB01BF
:102950009E838D830FC088EC90E09C838B838B815A
:102960009C810197F1F79C838B838D819E810197D8
:102970009E838D838D819E81009769F714C06F813E
:10298000788589859A850E944900DC01CB019E8368
:102990008D838D819E819A83898389819A81019714
:1029A000F1F79A838983C45BDF4F0FB6F894DEBFDB
:1029B0000FBECDBFCF91DF911F910F910895DF938F
:1029C000CF93CDB7DEB769970FB6F894DEBF0FBED1
:1029D000CDBF898F81E060E040E00E94C30A81E0C2
:1029E00061E040E00E94C30A80E0698D0E94910C82
:1029F00081E062E041E00E94C30A80E090E0A0E84C
:102A0000BFE38D8B9E8BAF8BB88F6D897E898F894D
:102A1000988D2BEA3AEA4AE250E40E941F02DC0158
:102A2000CB01898B9A8BAB8BBC8B69897A898B891B
:102A30009C8920E030E040E85FE30E942504882381
:102A40001CF481E0888B91C069897A898B899C8983
:102A500020E030E04FE753E40E94C50318160CF065
:102A60007BC06D897E898F89988D20E030E04AE7B0
:102A700054E40E941903DC01CB018C879D87AE874B
:102A8000BF876C857D858E859F8520E030E04AEF8D
:102A900054E40E941F02DC01CB0188879987AA8732
:102AA000BB87688579858A859B8520E030E040E892
:102AB0005FE30E94250488232CF481E090E09F834B
:102AC0008E833FC0688579858A859B8520E03FEFAE
:102AD0004FE757E40E94C50318164CF56C857D85B9
:102AE0008E859F8520E030E040E251E40E941F0285
:102AF000DC01CB01BC01CD010E944900DC01CB010E
:102B00009F838E830FC088EC90E09D838C838C81A3
:102B10009D810197F1F79D838C838E819F81019721
:102B20009F838E838E819F81009769F724C068857B
:102B300079858A859B850E944900DC01CB019F83B2
:102B40008E838E819F819B838A838A819B8101975B
:102B5000F1F79B838A830FC069897A898B899C8965
:102B60000E944900DC01CB01888B88898983898197
:102B70008A95F1F7898381E062E040E00E94C30A10
:102B800069960FB6F894DEBF0FBECDBFCF91DF912F
:102B90000895DF93CF93CDB7DEB769970FB6F8945A
:102BA000DEBF0FBECDBF898F81E060E041E00E94B3
:102BB000C30A81E061E040E00E94C30A80E0698DC1
:102BC0000E94910C81E062E041E00E94C30A80E033
:102BD00090E0A0E8BFE38D8B9E8BAF8BB88F6D89A3
:102BE0007E898F89988D2BEA3AEA4AE250E40E9466
:102BF0001F02DC01CB01898B9A8BAB8BBC8B698963
:102C00007A898B899C8920E030E040E85FE30E946C
:102C1000250488231CF481E0888B91C069897A8916
:102C20008B899C8920E030E04FE753E40E94C50384
:102C300018160CF07BC06D897E898F89988D20E0F5
:102C400030E04AE754E40E941903DC01CB018C8791
:102C50009D87AE87BF876C857D858E859F8520E0AB
:102C600030E04AEF54E40E941F02DC01CB01888768
:102C70009987AA87BB87688579858A859B8520E0A7
:102C800030E040E85FE30E94250488232CF481E0D3
:102C900090E09F838E833FC0688579858A859B8578
:102CA00020E03FEF4FE757E40E94C50318164CF5AC
:102CB0006C857D858E859F8520E030E040E251E483
:102CC0000E941F02DC01CB01BC01CD010E94490022
:102CD000DC01CB019F838E830FC088EC90E09D8345
:102CE0008C838C819D810197F1F79D838C838E81EC
:102CF0009F8101979F838E838E819F81009769F7C3
:102D000024C0688579858A859B850E944900DC01FD
:102D1000CB019F838E838E819F819B838A838A814F
:102D20009B810197F1F79B838A830FC069897A8918
:102D30008B899C890E944900DC01CB01888B8889A2
:102D4000898389818A95F1F7898381E062E040E097
:102D50000E94C30A69960FB6F894DEBF0FBECDBFBE
:102D6000CF91DF910895DF93CF9300D00F92CDB72D
:102D7000DEB79B838A8319820EC08981282F30E0B9
:102D80008A819B81FC01E20FF31F80810E94C9159B
:102D900089818F5F89838981282F30E08A819B8197
:102DA000FC01E20FF31F8081882339F70F900F9009
:102DB0000F90CF91DF910895DF93CF9300D000D093
:102DC000CDB7DEB789836A838981282F30E03C83C1
:102DD0002B838B819C818130910531F02B813C814B
:102DE0002230310531F009C08A8180580E94DF14F9
:102DF00004C08A8180540E94DF140F900F900F90BE
:102E00000F90CF91DF9108950F931F93DF93CF938E
:102E1000CDB7DEB760970FB6F894DEBF0FBECDBF5B
:102E20006D877E878F87988B89E089838D859E85C6
:102E3000AF85B8890097A105B10521F480E30E9410
:102E4000C91544C01C862EC08981082F10E08D85CD
:102E50009E85AF85B8892AE030E040E050E0BC01B3
:102E6000CD010E943B1DDC01CB01282F205DCE014E
:102E70000296FC01E00FF11F20838D859E85AF85B2
:102E8000B8892AE030E040E050E0BC01CD010E946A
:102E90003B1DDA01C9018D879E87AF87B88B898179
:102EA000815089838D859E85AF85B8890097A1055E
:102EB000B10551F68981882F90E09C012F5F3F4F2B
:102EC000CE010296820F931F0E94B31660960FB632
:102ED000F894DEBF0FBECDBFCF91DF911F910F9150
:102EE0000895DF93CF93CDB7DEB76C970FB6F89404
:102EF000DEBF0FBECDBF8A8F7C8F6B8F8A8D882FF0
:102F000090E00896880F991F880F991F880F991FC6
:102F10000E94DF1480E090E0A0E2B2E48D8B9E8BF3
:102F2000AF8BB88F6D897E898F89988D2BEA3AEAAD
:102F30004AE250E40E941F02DC01CB01898B9A8B8C
:102F4000AB8BBC8B69897A898B899C8920E030E0C6
:102F500040E85FE30E94250488231CF481E0888B0D
:102F600091C069897A898B899C8920E030E04FE79C
:102F700053E40E94C50318160CF07BC06D897E894E
:102F80008F89988D20E030E04AE754E40E941903CD
:102F9000DC01CB018C879D87AE87BF876C857D85E3
:102FA0008E859F8520E030E04AEF54E40E941F02A6
:102FB000DC01CB0188879987AA87BB8768857985DB
:102FC0008A859B8520E030E040E85FE30E9425048D
:102FD00088232CF481E090E09F838E833FC0688536
:102FE00079858A859B8520E03FEF4FE757E40E9473
:102FF000C50318164CF56C857D858E859F8520E070
:1030000030E040E251E40E941F02DC01CB01BC0130
:10301000CD010E944900DC01CB019F838E830FC04C
:1030200088EC90E09D838C838C819D810197F1F7E2
:103030009D838C838E819F8101979F838E838E8158
:103040009F81009769F724C0688579858A859B856B
:103050000E944900DC01CB019F838E838E819F817A
:103060009B838A838A819B810197F1F79B838A8363
:103070000FC069897A898B899C890E944900DC018B
:10308000CB01888B8889898389818A95F1F7898327
:10309000198E0EC0898D282F30E08B8D9C8DFC0100
:1030A000E20FF31F80810E94C915898D8F5F898F80
:1030B000898D883078F36C960FB6F894DEBF0FBE1A
:1030C000CDBFCF91DF910895DF93CF930F92CDB70E
:1030D000DEB7898389810E94C9150F90CF91DF9156
:1030E0000895DF93CF93CDB7DEB7A7E3B0E0E7E372
:1030F000F0E0808188638C93ECE5F0E01082A7E338
:10310000B0E0E7E3F0E0808188608C93A3E5B0E075
:10311000E3E5F0E0808180648C93A3E5B0E0E3E533
:10312000F0E0808188608C93A3E5B0E0E3E5F0E017
:103130008081887F8C93A3E5B0E0E3E5F0E08081B7
:1031400082608C93A3E5B0E0E3E5F0E080818062EB
:103150008C93A3E5B0E0E3E5F0E080818F7E8C9373
:10316000CF91DF910895DF93CF930F92CDB7DEB764
:103170008983ECE5F0E08981482F50E0CA019C0189
:10318000220F331FC9019695982F88279795879509
:10319000821B930B840F951F24E630E0B9010E9437
:1031A000281DCB018083A8E3B0E0E8E3F0E0808154
:1031B0008F7E8C93A8E3B0E0E8E3F0E080818F7D20
:1031C0008C930F90CF91DF910895DF93CF93CDB77C
:1031D000DEB7ECE5F0E08FE78083A8E3B0E0E8E35A
:1031E000F0E080818F7E8C93A8E3B0E0E8E3F0E02C
:1031F000808180628C93CF91DF910895DF93CF938C
:10320000CDB7DEB7ECE5F0E08FE78083A8E3B0E070
:10321000E8E3F0E080818F7D8C93A8E3B0E0E8E301
:10322000F0E0808180618C93CF91DF910895DF93EE
:10323000CF930F92CDB7DEB78983ECE5F0E08981BB
:10324000282F30E084E690E0AC01421B530BCA010A
:103250009C01220F331FC9019695982F88279795B7
:103260008795821B930B840F951F24E630E0B901EC
:103270000E94281DCB018083A8E3B0E0E8E3F0E0E2
:10328000808180618C93A8E3B0E0E8E3F0E0808186
:1032900080628C930F90CF91DF910895DF93CF934D
:1032A000CDB7DEB7ECE5F0E01082A8E3B0E0E8E3EC
:1032B000F0E080818F7D8C93A8E3B0E0E8E3F0E05C
:1032C00080818F7E8C93CF91DF910895DF93CF9390
:1032D000CDB7DEB782E06CE70E94DE0C0E940C12D4
:1032E0000E942F100E94711880E690E02DE839E1CD
:1032F00060E04CE30E94F70C8BE690E028EA39E1AD
:1033000061E048EC0E94F70C82E790E021E83CE1A4
:1033100062E044EF0E94F70CFFCFDF93CF9300D021
:1033200000D0CDB7DEB719821A821B821C820E94A0
:1033300046100E94D311DC01CB0189839A83AB83B1
:10334000BC830F900F900F900F90CF91DF91089555
:10335000DF93CF93CDB7DEB7E8970FB6F894DEBF13
:103360000FBECDBF8091D0019091D101A091D2012B
:10337000B091D3010097A105B10509F019C189E108
:103380000E94171981E08093940289E190E0A0E007
:10339000B0E08093D4019093D501A093D601B0936F
:1033A000D70180E090E0A8ECB2E48DAB9EABAFAB70
:1033B000B8AF6DA97EA98FA998AD20E030E04AEFA3
:1033C00054E40E941F02DC01CB0189AB9AABABAB8A
:1033D000BCAB69A97AA98BA99CA920E030E040E8A0
:1033E0005FE30E94250488232CF481E090E098ABF1
:1033F0008FA73FC069A97AA98BA99CA920E03FEFBC
:103400004FE757E40E94C50318164CF56DA97EA935
:103410008FA998AD20E030E040E251E40E941F0205
:10342000DC01CB01BC01CD010E944900DC01CB01D4
:1034300098AB8FA70FC088EC90E09EA78DA78DA5B5
:103440009EA50197F1F79EA78DA78FA598A9019733
:1034500098AB8FA78FA598A9009769F714C069A9A1
:103460007AA98BA99CA90E944900DC01CB0198ABE9
:103470008FA78FA598A99CA78BA78BA59CA5019723
:10348000F1F79CA78BA70E94E51882E08093940235
:1034900082E390E0A0E0B0E08093D4019093D50166
:1034A000A093D601B093D70180E090E0A8ECB2E4FD
:1034B0008FA398A7A9A7BAA76FA178A589A59AA550
:1034C00020E030E04AEF54E40E941F02DC01CB010F
:1034D0008BA39CA3ADA3BEA36BA17CA18DA19EA138
:1034E00020E030E040E85FE30E94250488232CF4CC
:1034F00081E090E09AA389A33FC06BA17CA18DA13C
:103500009EA120E03FEF4FE757E40E94C503181645
:103510004CF56FA178A589A59AA520E030E040E29E
:1035200051E40E941F02DC01CB01BC01CD010E94CD
:103530004900DC01CB019AA389A30FC088EC90E07D
:1035400098A38F8F8F8D98A10197F1F798A38F8FF4
:1035500089A19AA101979AA389A389A19AA1009709
:1035600069F714C06BA17CA18DA19EA10E944900A6
:10357000DC01CB019AA389A389A19AA19E8F8D8F8B
:103580008D8D9E8D0197F1F79E8F8D8F89E10E9421
:10359000B3181092940289E190E0A0E0B0E080932B
:1035A000D4019093D501A093D601B093D701A0C1C7
:1035B0008091D0019091D101A091D201B091D3011D
:1035C0008A309105A105B10508F014C10E944E1979
:1035D00084E0809394021092D4011092D50110924D
:1035E000D6011092D70180E090E0A8ECB2E4898F78
:1035F0009A8FAB8FBC8F698D7A8D8B8D9C8D20E0DF
:1036000030E04AEF54E40E941F02DC01CB018D8BB5
:103610009E8BAF8BB88F6D897E898F89988D20E0C6
:1036200030E040E85FE30E94250488232CF481E029
:1036300090E09C8B8B8B3FC06D897E898F89988DA4
:1036400020E03FEF4FE757E40E94C50318164CF502
:10365000698D7A8D8B8D9C8D20E030E040E251E4C5
:103660000E941F02DC01CB01BC01CD010E94490078
:10367000DC01CB019C8B8B8B0FC088EC90E09A8B8C
:10368000898B89899A890197F1F79A8B898B8B8924
:103690009C8901979C8B8B8B8B899C89009769F700
:1036A00014C06D897E898F89988D0E944900DC0144
:1036B000CB019C8B8B8B8B899C89988B8F878F857B
:1036C00098890197F1F7988B8F870E94E51882E01F
:1036D0008093940282E390E0A0E0B0E08093D40174
:1036E0009093D501A093D601B093D70180E090E0EC
:1036F000A8ECB2E48B879C87AD87BE876B857C8501
:103700008D859E8520E030E04AEF54E40E941F0240
:10371000DC01CB018F839887A987BA876F81788571
:1037200089859A8520E030E040E85FE30E94250427
:1037300088232CF481E090E09E838D833FC06F81CD
:10374000788589859A8520E03FEF4FE757E40E940E
:10375000C50318164CF56B857C858D859E8520E00C
:1037600030E040E251E40E941F02DC01CB01BC01C9
:10377000CD010E944900DC01CB019E838D830FC0E7
:1037800088EC90E09C838B838B819C810197F1F77F
:103790009C838B838D819E8101979E838D838D81F8
:1037A0009E81009769F714C06F81788589859A8515
:1037B0000E944900DC01CB019E838D838D819E8117
:1037C0009A83898389819A810197F1F79A83898302
:1037D00089E10E94B3181092940289E190E0A0E080
:1037E000B0E08093D4019093D501A093D601B0931B
:1037F000D7017EC08091D0019091D101A091D201DA
:10380000B091D30182339105A105B10590F489E10E
:103810000E94B3181092940289E190E0A0E0B0E019
:103820008093D4019093D501A093D601B093D70192
:103830005FC08091D0019091D101A091D201B0914F
:10384000D30184369105A105B10590F482E30E946D
:10385000B3181092940282E390E0A0E0B0E080936D
:10386000D4019093D501A093D601B093D70140C065
:103870008091D0019091D101A091D201B091D3015A
:103880008A3F9105A105B10590F48BE40E94B3181D
:10389000109294028BE490E0A0E0B0E08093D40119
:1038A0009093D501A093D601B093D70121C0809108
:1038B000D0019091D101A091D201B091D301843F68
:1038C00021E0920720E0A20720E0B20788F484E616
:1038D0000E94B3181092940284E690E0A0E0B0E059
:1038E0008093D4019093D501A093D601B093D701D2
:1038F000E8960FB6F894DEBF0FBECDBFCF91DF9133
:103900000895DF93CF9300D0CDB7DEB781E00E945A
:10391000DF148091D0019091D101A091D201B0919A
:10392000D30180339105A105B105E9F481E060E0A0
:103930000E94DC1686E790E00E94B3168091D401C5
:103940009091D501A091D601B091D701BC01CD01D4
:103950000E94041782E060E00E94DC168FE790E08E
:103960000E94B3165CC081E060E00E94DC1680918A
:103970009402282F30E03A83298389819A8181300B
:103980009105D1F029813A81223031052CF48981C9
:103990009A81009761F01FC029813A812230310558
:1039A00081F089819A818330910581F014C086E786
:1039B00090E00E94B31613C08DE890E00E94B31609
:1039C0000EC087E990E00E94B31609C082EA90E039
:1039D0000E94B31604C08CEA90E00E94B316809156
:1039E000D4019091D501A091D601B091D701BC012D
:1039F000CD010E94041782E060E00E94DC1682EB99
:103A000090E00E94B3168091D0019091D101A091D5
:103A1000D201B091D301BC01CD010E9404170F90D7
:103A20000F90CF91DF910895AA1BBB1B51E107C0F6
:103A3000AA1FBB1FA617B70710F0A61BB70B881F3E
:103A4000991F5A95A9F780959095BC01CD010895CD
:103A500097FB092E07260AD077FD04D0E5DF06D0B4
:103A600000201AF4709561957F4F0895F6F79095B0
:103A700081959F4F0895A1E21A2EAA1BBB1BFD0141
:103A80000DC0AA1FBB1FEE1FFF1FA217B307E4073D
:103A9000F50720F0A21BB30BE40BF50B661F771F95
:103AA000881F991F1A9469F7609570958095909575
:103AB0009B01AC01BD01CF0108952F923F924F921F
:103AC0005F926F927F928F929F92AF92BF92CF92AE
:103AD000DF92EF92FF920F931F93CF93DF93CDB7B7
:103AE000DEB7CA1BDB0B0FB6F894DEBF0FBECDBF2F
:103AF00009942A88398848885F846E847D848C8400
:103B00009B84AA84B984C884DF80EE80FD800C8108
:103B10001B81AA81B981CE0FD11D0FB6F894DEBFEB
:103B20000FBECDBFED010895FB01DC018D91019029
:103B300080190110D9F3990B0895FB01DC01019064
:0C3B40000D920020E1F70895F894FFCFEB
:103B4C00554C545241534F4E4943004D4F544F52D4
:103B5C0053004C434400464F52574152443A006F75
:103B6C007574206F662072616E67653A004241433E
:103B7C004B574152443A00524F545F5249474854B4
:103B8C003A00524F545F4C4546543A0053544F50F0
:103B9C003A0064697374616E63653A00000000005A
:103BAC0000000000000102020303030304040404E8
:103BBC0004040404050505050505050505050505AD
:103BCC00050505050606060606060606060606068D
:103BDC000606060606060606060606060606060679
:103BEC00060606060707070707070707070707075D
:103BFC000707070707070707070707070707070749
:103C0C000707070707070707070707070707070738
:103C1C000707070707070707070707070707070728
:103C2C00070707070808080808080808080808080C
:103C3C0008080808080808080808080808080808F8
:103C4C0008080808080808080808080808080808E8
:103C5C0008080808080808080808080808080808D8
:103C6C0008080808080808080808080808080808C8
:103C7C0008080808080808080808080808080808B8
:103C8C0008080808080808080808080808080808A8
:103C9C000808080808080808080808080808080898
:0A3CAC00080808084E554C4C0000B3
:00000001FF
